:100000000C9481070C949E070C949E070C94EE10A0
:100010000C949E070C949E070C949E070C949E07CC
:100020000C949E070C9495330C949E070C949E0799
:100030000C949E070C949E070C949E070C949E07AC
:100040000C949E070C949E070C949E070C949E079C
:100050000C949E0707634236B79BD8A71A39685697
:1000600018AEBAAB558C1D3CB7CC5763BD6DEDFDDA
:10007000753EF6177231BF000000803F0800000097
:10008000BE922449123EABAAAA2ABECDCCCC4C3E8D
:1000900000000080BEABAAAAAA3E00000000BF007C
:1000A0000000803F0000000000084178D3BB438778
:1000B000D1133D190E3CC3BD4282AD2B3E68EC828C
:1000C00076BED98FE1A93E4C80EFFFBE01C4FF7F11
:1000D0003F00000000000400050006FF07050800BF
:1000E00009060AFF0B1FC100C00DC232CAEECB05C4
:1000F000C412C612C70CE430E54FE246E349E043C0
:10010000E1453C21444F43545950452068746D6C7F
:10011000205055424C494320222D2F2F5733432F37
:100120002F445444205848544D4C20312E302054F4
:1001300072616E736974696F6E616C2F2F454E2208
:100140002022687474703A2F2F7777772E77332EAA
:100150006F72672F54522F7868746D6C312F44542E
:10016000442F7868746D6C312D7472616E7369748C
:10017000696F6E616C2E647464223E3C68746D6CB1
:1001800020786D6C6E733D22687474703A2F2F77EF
:1001900077772E77332E6F72672F313939392F7871
:1001A00068746D6C22206469723D226C7472222026
:1001B0006C616E673D22656E223E3C686561643EFF
:1001C0003C6D65746120687474702D657175697615
:1001D0003D22436F6E74656E742D547970652220D4
:1001E000636F6E74656E743D22746578742F6874E5
:1001F0006D6C3B20636861727365743D5554462D88
:1002000038223E3C7469746C653E415652207765D5
:1002100062207365727665723C2F7469746C653EFA
:100220003C7374796C6520747970653D22746578CF
:10023000742F637373223E2E6F6E207B20626F7269
:100240006465723A313B2077696474683A203230D1
:1002500070783B206865696768743A20323070783E
:100260003B206261636B67726F756E643A20626CEB
:1002700075653B20746578742D616C69676E3A20F2
:1002800063656E7465723B2070616464696E673A81
:10029000203070783B20636F6C6F723A2023666663
:1002A000663B202D6D6F7A2D626F726465722D72C0
:1002B00061646975733A20313070783B202D776521
:1002C000626B69742D626F726465722D726164690C
:1002D00075733A20313070783B20626F72646572BA
:1002E0002D7261646975733A20313070783B7D2ED0
:1002F000627574746F6E7B77696474683A2031300C
:1003000030253B7D2E6F6666207B20626F726465B0
:10031000723A313B2077696474683A2032307078E1
:100320003B206865696768743A20323070783B20FA
:100330006261636B67726F756E643A207768697487
:10034000653B20746578742D616C69676E3A206333
:10035000656E7465723B2070616464696E673A20F3
:100360003070783B20636F6C6F723A20236666664C
:100370003B202D6D6F7A2D626F726465722D7261F4
:10038000646975733A20313070783B202D7765624F
:100390006B69742D626F726465722D726164697528
:1003A000733A20313070783B20626F726465722D31
:1003B0007261646975733A20313070783B7D202E0C
:1003C000627574746F6E327B77696474683A203832
:1003D0003070783B7D3C2F7374796C653E3C2F68A0
:1003E0006561643E3C626F6479206267636F6C6F25
:1003F000723D22236430643064302220616C69676E
:100400006E3D2263656E74657222207374796C652B
:100410003D2270616464696E673A203735707820D8
:1004200030707820307078203070783B223E3C74F9
:1004300061626C65206267636F6C6F723D2223326C
:100440004634463446222069643D22726F6F74221E
:1004500020626F726465723D22312220616C69678F
:100460006E3D2263656E74657222207769647468DC
:100470003D223836387078223E3C74626F64793E93
:100480003C74723E3C746420636F6C7370616E3DAB
:10049000223422206865696768743D223130302239
:1004A0003E3C623E3C64697620616C69676E3D2229
:1004B00063656E74657222207374796C653D226683
:1004C0006F6E742D73697A653A323570743B2063B0
:1004D0006F6C6F723A23464646464646223E524568
:1004E0004D4F544520434F4E54524F4C204156528D
:1004F000205745425345525645523C2F6469763E3B
:100500003C2F623E3C2F74643E3C2F74723E3C7420
:100510007220616C69676E3D226C656674223E3C98
:100520007464206865696768743D223235222076DC
:10053000616C69676E3D22746F7022207769647404
:10054000683D22373525223E3C623E3C6469762078
:100550007374796C653D22636F6C6F723A23464603
:1005600046464646223E266E6273703B4465766977
:100570006365733C2F6469763E3C2F623E3C2F746A
:10058000643E3C7464206865696768743D22323556
:10059000222076616C69676E3D22746F702220772D
:1005A000696474683D226175746F223E3C623E3C12
:1005B000646976207374796C653D22636F6C6F7229
:1005C0003A23464646464646223E266E6273703BB6
:1005D00053656E736F727320283C7375703E6F3C69
:1005E0002F7375703E43293C2F6469763E3C2F6221
:1005F0003E3C2F74643E3C2F74723E3C74723E3C11
:100600007464206865696768743D226175746F223F
:100610002076616C69676E3D22746F702220776965
:100620006474683D22323030223E3C703E3C2F7074
:100630003E3C6469763E3C666F726D206D65746801
:100640006F643D22504F53542220616374696F6E72
:100650003D22223E3C666F6E7420636F6C6F723D6C
:100660002223464646464646223E3C7461626C65FD
:100670002077696474683D223935252220626F72C3
:100680006465723D22312220616C69676E3D226390
:10069000656E746572222069643D227461626C65C6
:1006A0005F646576696365223E3C747220616C69A3
:1006B000676E3D2263656E746572223E3C746420F1
:1006C00077696474683D22313525223E4E616D653F
:1006D000733C2F74643E3C74642077696474683D95
:1006E000223925223E4E6F77205374617465733C26
:1006F0002F74643E3C74642077696474683D2231D1
:100700003125223E436F6E74726F6C2050616E65AE
:100710006C3C2F74643E3C74643E436F6D6D616E3F
:10072000643C2F74643E3C74642077696474683D53
:1007300022313525223E436F756E74646F776E20CB
:10074000284D696E75746573293C2F74643E3C7442
:10075000642077696474683D22313125223E5469F2
:100760006D6572205374617475733C2F74643E3CE4
:1007700074642077696474683D22313525223E41D6
:1007800075746F204F4E20283C7375703E6F3C2F60
:100790007375703E43293C2F74643E3C2F74723E47
:1007A0003C747220616C69676E3D2263656E74658E
:1007B00072223E3C74643E44657669636520313C38
:1007C0002F74643E3C74643E3C64697620636C61C3
:1007D00073733D2225434C31223E3C2F6469763EA3
:1007E0003C2F74643E3C74643E3C696E70757420AA
:1007F000636C6173733D22627574746F6E22207432
:100800007970653D227375626D6974222076616C22
:1008100075653D222552533122206E616D653D2262
:10082000524C31223E3C2F74643E3C74643E3C6921
:100830006E70757420747970653D227465787422C9
:10084000206E616D653D224175746F31222F3E3CF3
:100850002F74643E3C74643E254344313C2F7464E1
:100860003E3C74643E255453313C2F74643E3C74CA
:10087000643E255441313C2F74643E3C2F74723EDB
:100880003C747220616C69676E3D2263656E7465AD
:1008900072223E3C74643E44657669636520323C56
:1008A0002F74643E3C74643E3C64697620636C61E2
:1008B00073733D2225434C32223E3C2F6469763EC1
:1008C0003C2F74643E3C74643E3C696E70757420C9
:1008D000636C6173733D22627574746F6E22207451
:1008E0007970653D227375626D6974222076616C42
:1008F00075653D222552533222206E616D653D2281
:10090000524C32223E3C2F74643E3C74643E3C693F
:100910006E70757420747970653D227465787422E8
:10092000206E616D653D224175746F32222F3E3C11
:100930002F74643E3C74643E254344323C2F7464FF
:100940003E3C74643E255453323C2F74643E3C74E8
:10095000643E255441323C2F74643E3C2F74723EF9
:100960003C747220616C69676E3D2263656E7465CC
:1009700072223E3C74643E44657669636520333C74
:100980002F74643E3C74643E3C64697620636C6101
:1009900073733D2225434C33223E3C2F6469763EDF
:1009A0003C2F74643E3C74643E3C696E70757420E8
:1009B000636C6173733D22627574746F6E22207470
:1009C0007970653D227375626D6974222076616C61
:1009D00075653D222552533322206E616D653D229F
:1009E000524C33223E3C2F74643E3C74643E3C695E
:1009F0006E70757420747970653D22746578742208
:100A0000206E616D653D224175746F33222F3E3C2F
:100A10002F74643E3C74643E254344333C2F74641D
:100A20003E3C74643E255453333C2F74643E3C7406
:100A3000643E255441333C2F74643E3C2F74723E17
:100A40003C747220616C69676E3D2263656E7465EB
:100A500072223E3C74643E44657669636520343C92
:100A60002F74643E3C74643E3C64697620636C6120
:100A700073733D2225434C34223E3C2F6469763EFD
:100A80003C2F74643E3C74643E3C696E7075742007
:100A9000636C6173733D22627574746F6E2220748F
:100AA0007970653D227375626D6974222076616C80
:100AB00075653D222552533422206E616D653D22BD
:100AC000524C34223E3C2F74643E3C74643E3C697C
:100AD0006E70757420747970653D22746578742227
:100AE000206E616D653D224175746F34222F3E3C4E
:100AF0002F74643E3C74643E254344343C2F74643C
:100B00003E3C74643E255453343C2F74643E3C7424
:100B1000643E255441343C2F74643E3C2F74723E35
:100B20003C2F7461626C653E3C2F666F6E743E3C78
:100B30007020616C69676E3D2263656E7465722218
:100B40003E3C696E70757420636C6173733D226204
:100B50007574746F6E322220747970653D227375DE
:100B6000626D6974222076616C75653D22537562F1
:100B70006D697422206E616D653D22535542223E9F
:100B80003C2F703E3C2F666F726D3E3C2F64697641
:100B90003E3C2F74643E3C746420686569676874E9
:100BA0003D226175746F2220616C69676E3D22631E
:100BB000656E746572222077696474683D22617580
:100BC000746F223E3C646976207374796C653D22B3
:100BD000666F6E742D73697A653A353070743B2098
:100BE000636F6C6F723A23464646464646223E2560
:100BF00041443C2F6469763E3C2F74643E3C2F7424
:100C0000723E3C74723E3C746420636F6C7370611E
:100C10006E3D223422206865696768743D22323552
:100C2000222077696474683D226175746F223E3CAE
:100C300064697620616C69676E3D2263656E7465D8
:100C40007222207374796C653D22636F6C6F723A07
:100C500023464646464646223E54696D657A6F6E87
:100C6000653A20474D542B372E2043757272656EBE
:100C7000742074696D65203C7370616E3E25544923
:100C80003C2F7370616E3E3C2F6469763E3C2F743E
:100C9000643E3C2F74723E3C2F74626F64793E3C1C
:100CA0002F7461626C653E3C2F626F64793E3C2F0D
:100CB00068746D6C3E00417574686F72697A617416
:100CC000696F6E00485454502F312E30203230302E
:100CD00020446F63756D656E7420666F6C6C6F7702
:100CE000730D0A5365727665723A204156525F530E
:100CF0006D616C6C5F5765627365727665720D0A23
:100D0000436F6E74656E742D547970653A20746506
:100D100078742F68746D6C0D0A0D0A004854545095
:100D20002F312E302034303120556E617574686F4C
:100D300072697A65640D0A5365727665723A20416C
:100D400056525F536D616C6C5F5765627365727666
:100D500065720D0A5757572D41757468656E746931
:100D6000636174653A204261736963207265616CE6
:100D70006D3D224E65656450617373776F726422B6
:100D80000D0A436F6E74656E742D547970653A2048
:100D9000746578742F68746D6C0D0A0D0A00343018
:100DA0003120556E617574686F72697A6564254586
:100DB0004E4400485454502F312E312035303120CC
:100DC0004E6F7420496D706C656D656E7465640D51
:100DD0000A5365727665723A204156525F536D61CF
:100DE0006C6C5F5765627365727665720D0A575752
:100DF000572D41757468656E7469636174653A2036
:100E00004261736963207265616C6D3D224D79208A
:100E10004156522077656220736572766572220DA5
:100E20000A436F6E74656E742D547970653A207440
:100E30006578742F68746D6C0D0A0D0A0041424389
:100E40004445464748494A4B4C4D4E4F50515253EA
:100E50005455565758595A616263646566676869A4
:100E60006A6B6C6D6E6F707172737475767778796A
:100E70007A303132333435363738392B2F3D004113
:100E800075746F343D7265736574004175746F33AA
:100E90003D7265736574004175746F323D726573A0
:100EA0006574004175746F313D7273616C6C004103
:100EB00075746F313D7265736574005355423D53CF
:100EC00075626D697400524C343D4F464600524C79
:100ED000343D4F4E00524C333D4F464600524C334A
:100EE0003D4F4E00524C323D4F464600524C323D33
:100EF0004F4E00524C313D4F464600524C313D4F13
:100F00004E0011241FBECFE5D8E0DEBFCDBF10E0FC
:100F1000A0E6B0E0EAEAF6E702C005900D92AE3A2C
:100F2000B107D9F717E0AEEAB0E001C01D92AA35CB
:100F3000B107E1F70E94652A0C94533B0C94000022
:100F4000E3ECF0E08BE191E01082118212821382D7
:100F500012863B96E817F907B9F70895ECEBF0E035
:100F6000282F392FD90186E00D9001928150E1F7A9
:100F70004093B8005093B9006093BA007093BB00DF
:100F80000895E3ECF0E0A0E02081318142815381BB
:100F9000261737074807590719F42285222329F411
:100FA000AF5F3B96A83081F7AFEF8A2F0895EF929D
:100FB000FF920F931F93DF93CF9300D000D000D008
:100FC000CDB7DEB749835A836B837C838D839E8341
:100FD00078018901C801B7010E94C107883028F053
:100FE0008091CD00882369F536C090E0DC01AA0F1E
:100FF000BB1F9C01220F331F220F331F220F331FF1
:10100000A20FB31FA80FB91FA953BF4FFE013196FE
:1010100026E001900D922150E1F7FC01EE0FFF1F39
:101020009C01220F331F220F331F220F331FE20FA9
:10103000F31F8E0F9F1FFC01ED53FF4F8AEF828736
:101040003FC0E8EDF0E080E090E001969C01408137
:10105000442391F502C020E030E0D901AA0FBB1F64
:10106000C901880F991F880F991F880F991FA80F12
:10107000B91FA20FB31FA953BF4FFE01319686E0DF
:1010800001900D928150E1F7F901EE0FFF1FC901A8
:10109000880F991F880F991F880F991FE80FF91F54
:1010A0002E0F3F1FF901ED53FF4FE082F1820283C3
:1010B00013838AEF828704C03B968730910529F617
:1010C00026960FB6F894DEBF0FBECDBFCF91DF914D
:1010D0001F910F91FF90EF9008958F929F92AF9282
:1010E000BF92CF92DF92EF92FF920F931F93CF9315
:1010F000DF937C01EB010F2EFEE0CF2EDD24F02DDF
:10110000C60ED71E8E859F8521E08030920709F09C
:101110001CC1F601828193818830910509F015C1C7
:101120008481863009F011C18581843009F00DC1B8
:101130002091B8003091B9004091BA005091BB00A5
:10114000852E9924AA24BB24B22FAA279927882761
:10115000882A992AAA2ABB2ADA01C90180709070CC
:10116000B070892F9A2FAB2FBB2788299929AA29DC
:10117000BB29207040705070542F432F322F2227EC
:10118000282B392B4A2B5B2B808D918DA28DB38D13
:1011900082179307A407B50709F0D7C08681978106
:1011A000F1E080309F0709F099C0F6012685378568
:1011B00040895189852E9924AA24BB24B22FAA27BD
:1011C00099278827882A992AAA2ABB2ADA01C901DD
:1011D00080709070B070892F9A2FAB2FBB27882911
:1011E0009929AA29BB292070407050700027122F1E
:1011F000232F342F082B192B2A2B3B2B408551856D
:1012000062857385848595850E94D707D60152969D
:10121000F601389686E001900D928150E1F7F601D3
:1012200086859785A089B189808F918FA28FB38F92
:10123000D6011896ECEBF0E086E001900D9281501B
:10124000E1F72091B8003091B9004091BA00509177
:10125000BB00852E9924AA24BB24B22FAA27992744
:101260008827882A992AAA2ABB2ADA01C90180700C
:101270009070B070892F9A2FAB2FBB27882A992A9C
:10128000AA2ABB2ADA01C9018070A070B070BA2FF7
:10129000A92F982F882788299929AA29BB29F601DF
:1012A00086879787A08BB18B80E092E097838683B7
:1012B000DE01FE01369686E001900D928150E1F745
:1012C000DE011696ECEBF0E086E001900D92815085
:1012D000E1F7C701BE010E94781037C0F2E080300C
:1012E0009F0799F5F60186859785A089B189EB2E30
:1012F000FF2400271127582F442733272227E22ACB
:10130000F32A042B152B9C01AD0120703070507016
:10131000232F342F452F55272E293F29402B512B82
:101320008070A070B070BA2FA92F982F88278901DC
:101330009A01082B192B2A2B3B2B4085518562855E
:101340007385848595850E94D707DF91CF911F9182
:101350000F91FF90EF90DF90CF90BF90AF909F9054
:101360008F9008950F931F93FC01828D938DA48D10
:10137000B58D4B2F552766277727382F2227112722
:101380000027402B512B622B732B8C019D01007089
:1013900010703070012F122F232F3327042B152BA1
:1013A000262B372B8070A070B070BA2FA92F982FE2
:1013B0008827082B192B2A2B3B2B468157816085C8
:1013C0007185828593850E94D7071F910F9108959B
:1013D000EF92FF920F931F93CF93DF93EC01411590
:1013E00051056105710529F0CB01BA010E94C107C1
:1013F0002AC08E8D9F8DA8A1B9A1EB2EFF240027B6
:101400001127582F442733272227E22AF32A042BB7
:10141000152B9C01AD01207030705070232F342F9C
:10142000452F55272E293F29402B512B8070A07026
:10143000B0706627782F892F9A2F622B732B842BFD
:10144000952B0E94C107883030F5DE011696ECEB33
:10145000F0E096E001900D929150E1F790E0FC01F0
:10146000EE0FFF1F9C01220F331F220F331F220F8D
:10147000331FE20FF31F8E0F9F1FDE01FC01E953A4
:10148000FF4F86E001900D928150E1F788E090E0F7
:101490009D878C8714C0DE011696ECEBF0E086E0A9
:1014A00001900D928150E1F78FEF888389838A83C1
:1014B0008B838C838D8388E090E09D878C87DF9180
:1014C000CF911F910F91FF90EF900895EDECF0E018
:1014D00085E291E02081222311F0215020833B9668
:1014E000E817F907B9F7089588E291E00E947E10A5
:1014F0008091280190912901A0912A01B0912B019E
:1015000080931B0190931C01A0931D01B0931E01B9
:1015100010922001109221011092220110922301B9
:1015200081E080932E0183E080931F0108950F9343
:101530001F93CF93DF93FC01DC016D9341838D01F9
:101540000F5F1F4F442399F0822F932F415050E09B
:101550003396E40FF51FE801DC012D91CD012993AD
:10156000CE17DF07C9F74F5F5F4F040F151F8FEFCF
:10157000F8018083802F912FDF91CF911F910F91E0
:101580000895CF93DF93FC018081882311F4319675
:10159000FBCF8F3F09F18617B9F4EF0121965181F6
:1015A000451708F4542F552369F03296822F932F54
:1015B000DC0101965150850F911D21912D93A817A3
:1015C000B907D9F7888109C0CF0101965181FC0183
:1015D000E50FF11D3196D8CF80E0DF91CF910895CE
:1015E0002F923F924F925F926F927F928F929F9233
:1015F000AF92BF92CF92DF92EF92FF920F931F9321
:10160000DF93CF9300D000D0CDB7DEB70E94EB10B0
:101610008C010F2EFAE2EF2EFF24F02DE80EF91EBA
:1016200081E0F80182A7F701818386E082830E942E
:101630004D1CFC01A080B180C280D380DA2CCC2468
:10164000BB24AA240E944D1CFC0180819181A281AF
:10165000B38180709070B070292E3A2E4B2E552495
:101660000E944D1CFC0180819181A281B381807018
:10167000A070B0706624782E892E9A2E0E944D1C80
:10168000FC01838190E0A0E0B0E0A82AB92ACA2A30
:10169000DB2AA228B328C428D5286A287B288C28CE
:1016A0009D28F7016486758686869786108A118A3A
:1016B000128A138A148A158A168A178A108E118E36
:1016C000128E138EC7014C960E947E1080911B01D2
:1016D00090911C01A0911D01B0911E01F70184831E
:1016E0009583A683B78380E091E093878287F80192
:1016F000EA5EFE4F83E692E8A3E5B3E6808391833A
:10170000A283B38381E090E0A0E0B0E089839A8374
:10171000AB83BC83C801865E9E4F65E341E09E01BA
:101720002F5F3F4F0E94970A6DE346E028E231E0C9
:101730000E94970A6FEF7FEFCB0143E450E024E46F
:1017400030E00CEF10E00E94E0330F900F900F900C
:101750000F90CF91DF911F910F91FF90EF90DF904D
:10176000CF90BF90AF909F908F907F906F905F9041
:101770004F903F902F900895DF92EF92FF920F933A
:101780001F93DF93CF93CDB7DEB728970FB6F894AA
:10179000DEBF0FBECDBF7C014D835E836F83788734
:1017A000DD24D394FC01D08283E090E0A0E0B0E09F
:1017B00089839A83AB83BC83C70180519F4F65E3C4
:1017C00041E08E010F5F1F4F98010E94970A6DE361
:1017D00046E028E231E00E94970A66E344E09E0179
:1017E0002B5F3F4F0E94970A9701205F3F4F62E3B4
:1017F00044E00E94970AD98223E0F801218326E081
:1018000022832FE0238367E344E098010E94970A34
:10181000F701108A118A128A138A6FEF7FEFCB01CA
:1018200043E450E024E430E00EE011E00E94E033B5
:1018300028960FB6F894DEBF0FBECDBFCF91DF91D3
:101840001F910F91FF90EF90DF9008954F925F925C
:101850006F927F928F929F92AF92BF92CF92DF92C0
:10186000EF92FF920F931F93DF93CF93CDB7DEB725
:101870002D970FB6F894DEBF0FBECDBF8B01DB01F5
:101880008C91823009F00DC114962D913D914D91AE
:101890005C91179780911B0190911C01A0911D01F3
:1018A000B0911E01281739074A075B0709F0F9C0F4
:1018B0000F2EF0EFEF2EFF24F02DE60EF71EC701DE
:1018C00065E341E09E012F5F3F4F0E94C10A89817D
:1018D000823081F4C70166E344E09E012E5F3F4FF2
:1018E0000E94C10A4A815B816C817D81C8010E948E
:1018F000BC0BD7C0853009F0D4C00F2EF6E0CF2E38
:10190000DD24F02DCC0EDD1EC70161E044E0960120
:101910000E94C10A8E809F80A884B984C70163E0B9
:1019200044E096010E94C10A4E805F8068847984F9
:10193000C70163E344E096010E94C10A8E819F8142
:10194000A885B985CB2EDD24EE24FF24582F44270B
:1019500033272227C22AD32AE42AF52A9C01AD0183
:10196000207030705070232F342F452F55272C298D
:101970003D294E295F298070A070B070CC24D82EEC
:10198000E92EFA2E2C293D294E295F29209320018A
:10199000309321014093220150932301F801808963
:1019A0009189A289B389EB2EFF2400271127582F94
:1019B000442733272227E22AF32A042B152B9C01E4
:1019C000AD01207030705070232F342F452F5527D4
:1019D0002E293F29402B512B8070A070B070EE242F
:1019E000F82E092F1A2FDA01C9018E299F29A02B61
:1019F000B12B8A879B87AC87BD872B2D3327442744
:101A00005527B82DAA2799278827282B392B4A2B09
:101A10005B2BD501C40180709070B070892F9A2F14
:101A2000AB2FBB27282B392B4A2B5B2BD501C401AD
:101A30008070A070B070BA2FA92F982F8827282BFC
:101A4000392B4A2B5B2BE72CFF2400271127B42DC1
:101A5000AA2799278827E82AF92A0A2B1B2BD301C2
:101A6000C20180709070B070892F9A2FAB2FBB2766
:101A7000E82AF92A0A2B1B2BD301C2018070A0701F
:101A8000B070BA2FA92F982F8827E82AF92A0A2B95
:101A90001B2B6A857B858C859D850E94081C109276
:101AA0001F012D960FB6F894DEBF0FBECDBFCF91AC
:101AB000DF911F910F91FF90EF90DF90CF90BF903B
:101AC000AF909F908F907F906F905F904F90089510
:101AD0002F923F924F925F926F927F928F929F923E
:101AE000AF92BF92CF92DF92EF92FF920F931F932C
:101AF000DF93CF9300D000D0CDB7DEB70E94EB10BC
:101B00008C010F2EFAE2EF2EFF24F02DE80EF91EC5
:101B100081E0F80182A7F701818386E082830E9439
:101B20004D1CFC01A080B180C280D380DA2CCC2473
:101B3000BB24AA240E944D1CFC0180819181A281BA
:101B4000B38180709070B070292E3A2E4B2E5524A0
:101B50000E944D1CFC0180819181A281B381807023
:101B6000A070B0706624782E892E9A2E0E944D1C8B
:101B7000FC01838190E0A0E0B0E0A82AB92ACA2A3B
:101B8000DB2AA228B328C428D5286A287B288C28D9
:101B90009D28F7016486758686869786108A118A45
:101BA000128A138A148A158A168A178A108E118E41
:101BB000128E138EC7014C960E947E1080911B01DD
:101BC00090911C01A0911D01B0911E01F701848329
:101BD0009583A683B78380E091E093878287F8019D
:101BE000EA5EFE4F83E692E8A3E5B3E68083918345
:101BF000A283B38387E090E0A0E0B0E089839A837A
:101C0000AB83BC83C801865E9E4F65E341E02E0135
:101C10000894411C511C92010E94970A20912401B2
:101C2000309125014091260150912701652E77249E
:101C300088249924D22ECC24BB24AA246A287B2869
:101C40008C289D280F2EF0E0AF2EF0E0BF2EFFEF86
:101C5000CF2EF0E0DF2EF02DA222B322C422D52217
:101C6000AB2CBC2CCD2CDD246A287B288C289D280D
:101C7000207040705070AA24B22EC32ED42EA628F5
:101C8000B728C828D928A982BA82CB82DC8266E329
:101C900044E092010E94970A98012A5C3F4F62E358
:101CA00044E00E94970A609124017091250180917F
:101CB00026019091270143E450E024E430E000E065
:101CC00011E00E94E03360E070E0CB0120E030E002
:101CD000A901EE24FF2487010E94081C1092200114
:101CE0001092210110922201109223010F900F9067
:101CF0000F900F90CF91DF911F910F91FF90EF9078
:101D0000DF90CF90BF90AF909F908F907F906F901B
:101D10005F904F903F902F90089580912001909177
:101D20002101A0912201B09123010097A105B105E5
:101D300059F00197A109B1098093200190932101E5
:101D4000A0932201B093230180912E01882319F0E2
:101D5000815080932E01089580911F01882361F0A6
:101D600090912E01992341F4815080931F018AE0C4
:101D700080932E010E94F00A0895C398962F6F71E8
:101D8000682B6FB9779BFECF1FB8779BFECF992347
:101D90001CF41FB8779BFECF8FB1C39A0895C398E8
:101DA0006F71682B6FB9779BFECF4FB9779BFECFD2
:101DB000C39A08951F93CF93DF93182FC82FD0E0B5
:101DC000C076D0708091310190E0C817D907B9F082
:101DD00080EA6FE143E00E94CF0EAE015595479532
:101DE00055954795559547955595479555954795DB
:101DF00080E86FE10E94CF0E107610933101DF91E1
:101E0000CF911F910895C3982AE32FB9779BFECFF6
:101E1000009749F0E62FF72F1FB8779BFECF2FB121
:101E200021930197C9F7C39A0895FB01C3982AE744
:101E30002FB9779BFECF05C021912FB9779BFECF9D
:101E400001970097C9F7C39A08951F93182F0E940E
:101E5000DA0E80E0612F0E94BD0E1F9108950F934E
:101E60001F93182F062F0E94DA0E80E4612F402F57
:101E70000E94CF0E1F910F910895EF92FF92CF9382
:101E8000DF93682F84ED0E942F0F82ED61E00E94A6
:101E90002F0F8AEE0E94250F80FDFBCF82ED60E0C0
:101EA0000E942F0F88ED0E94250FC82FD0E089EDEA
:101EB0000E94250F90E0C82BD92B7E018C2F9F2DDF
:101EC000DF91CF91FF90EF9008950F931F93982F7C
:101ED000062F172F84ED692F0E942F0F86ED602F9C
:101EE0000E942F0F87ED612F0E942F0F8AEE0E9414
:101EF000250F80FDFBCF1F910F9108950F931F9326
:101F0000CF93DF93082F192FEB0182E060E00E944E
:101F10002F0F83E060E00E942F0F86E0602F0E9469
:101F20002F0F87E0612F0E942F0F8AE760E040E0CB
:101F30000E94CF0E802F912FBE010E94150F80E8C6
:101F40006FE148E00E94CF0EDF91CF911F910F917A
:101F50000895EF92FF920F931F93CF93DF938C011D
:101F60007B0189E30E94250F882309F450C080E09B
:101F700060912F010E942F0F6091300181E00E943B
:101F80002F0F8AE360E00E94BD0E80932F01109214
:101F900030018AE360E00E94BD0E382F20E080917E
:101FA0002F0190913001282B392B30933001209351
:101FB0002F018AE360E00E94BD0EC82FD0E08AE3C3
:101FC00060E00E94BD0E382F20E0C22BD32B8AE3A5
:101FD00060E00E94BD0E8AE360E00E94BD0E0C1717
:101FE0001D0708F4E801CE01B7010E94030F8CE041
:101FF00060912F010E942F0F609130018DE00E94AF
:102000002F0F80E86EE140E40E94CF0E02C0C0E0D6
:10201000D0E07E018C2F9F2DDF91CF911F910F91EA
:10202000FF90EF900895039665E070E00E942E38CF
:10203000660F771F660F771F660F771F6115710593
:1020400031F080E090E0019686179707E0F308955D
:10205000CF93DF938FEF80933101BB9AC39AC79AD6
:1020600087B3806B87BBBE9880E58DB91EB88FEFB4
:1020700060E04FEF0E94CF0EC9EEDDEF8DE10E94D0
:10208000250F80FD02C02197C9F780E096E090936C
:10209000300180932F01C1E0D0E0FE01EB52FF4FF1
:1020A0008491FE01EA52FF4F64910E942F0F229605
:1020B000CD32D10591F780E160E071E00E94650FBB
:1020C00080E86BE140EC0E94CF0E80E86FE144E0D5
:1020D0000E94CF0E84E16AE774E30E94650FDF91EE
:1020E000CF9108950E9428108BB780628BBF08950E
:1020F0000E947E0F08950E94A90F0895EF92FF920B
:102100000F931F93CF93DF938C0184EE0E94250FD2
:10211000E801899385EE0E94250FF80181838E01E5
:102120000F5F1F4F82EE0E94250F8983780108946C
:10213000E11CF11C83EE0E94250FF8018183E70169
:10214000219680EE0E94250FF701818381EE0E9487
:10215000250F8983DF91CF911F910F91FF90EF9011
:102160000895CF92DF92EF92FF920F931F93CF9338
:10217000DF93EC018C010F5F1F4F84EE68810E949A
:102180002F0F68010894C11CD11C85EE69810E9443
:102190002F0F76010894E11CF11C82EEF801618199
:1021A0000E942F0FE701219683EEF60161810E94C4
:1021B0002F0F80EEF70161810E942F0F81EE698160
:1021C0000E942F0FDF91CF911F910F91FF90EF9001
:1021D000DF90CF90089584E391E008951F920F92CD
:1021E0000FB60F9211248F9381E08093AE0010926E
:1021F0003301109232018BB78F7D8BBF8F910F907F
:102200000FBE0F901F9018950F931F93CF93DF93DE
:102210008091AE00882369F18EE194E064E371E07F
:102220000E947B10082F192F0115110511F1209123
:102230004001309141012830310569F4C4E3D1E017
:10224000CE010E94B209BE01625F7F4FC8010E97A6
:102250000E94281D0BC046E02830340729F464E3AF
:1022600071E00E946D0802C00E9472108BB78062FC
:102270008BBFDF91CF911F910F9108950F931F9303
:10228000CF93DF93FC018081882309F47DC0282F40
:1022900026952695DB012D93CD01108113701295A3
:1022A000107FEB01198321812223B9F412C0169506
:1022B000169513961C93D9011496EA011B8113708D
:1022C0001295107FE9011C83EA012C8133962223A9
:1022D00021F4ED01219622E028C022952F70120FE3
:1022E0001C939D01ED012196AF0111811F70110F0B
:1022F000110F11961C9311970281002319F4219656
:1023000021E013C00295069506950370100F1196F3
:102310001C93119712811F7312961C931297ED0153
:1023200023961381112319F620E01882C617D707C8
:1023300091F0DB01EC91F0E0EF73F070E35CF14FB2
:10234000E491ED93CA17DB07A9F7C81BD90B2196B7
:10235000C60FD71F01C0EB01222381F0215030E0CE
:10236000CE010196820F931FFE014DE34193E817C2
:10237000F907E1F72F5F3F4FC20FD31F1882DF919C
:10238000CF911F910F910895FB011082EB01F6CFC1
:1023900080E690E066E076E00E943E1110925D05D6
:1023A000109272051092870510929C051092B1054B
:1023B0001092C6051092DB051092F0050895CF9398
:1023C000DF93FC01EA018081873449F491819534DF
:1023D00031F482818435F9F481E088831EC0803530
:1023E00061F481818F34B9F482818335A1F48381D2
:1023F000843589F482E0888310C0883461F4818157
:10240000853449F48281813431F48381843419F430
:1024100083E0888302C084E08883DF01119680E036
:1024200090E00BC02D91203241F49C012F5F3F4F73
:102430002E0F3F1F3A83298314C0019686179707F2
:1024400088F30FC02D91203281F49C012F5F3F4F04
:102450002E0F3F1F3C832B83DC011196AE0FBF1F55
:102460001BC0DC011196AE0FBF1F019686179707A0
:1024700048F3F2CF2D912D3079F42C912A3061F46C
:102480009C012E5F3F4F2E0F3F1F3E832D83DC01AB
:102490001196AE0FBF1F12C001968617970750F313
:1024A000F6CF2D912D3051F42C912A3039F411961C
:1024B0002C9111972D3011F4049604C001968617C3
:1024C000970778F3E80FF91FF887EF83681B790BFC
:1024D0007A876987DF91CF910895FF920F931F93B9
:1024E000CF93DF93FB0105811681B80164507040E2
:1024F00027813085621B730B29F1D80120E030E081
:1025000040E050E0C0E0D0E0FD90FC01E20FF31F9E
:10251000E4914F5F5F4FFE1619F42F5F3F4F01C0EC
:102520009E01FC01E20FF31FE491EE2329F44E5FBC
:102530005F4F040F151F08C04617570728F300E028
:1025400010E002C000E010E0802F912FDF91CF91CA
:102550001F910F91FF90089560E177E20E942E385D
:102560006093B40068EE73E00E942E386093B3006D
:1025700064E670E00E942E386093B0006AE070E07C
:102580000E942E386093B1008093B200089564E6F3
:102590000E9422388093B000892F6AE00E9422387E
:1025A0008093B1009093B20008952F923F924F9282
:1025B0005F926F927F928F929F92AF92BF92CF92D3
:1025C000DF92EF92FF920F931F93DF93CF9300D090
:1025D00000D000D0CDB7DEB77C015B013A01322ECE
:1025E0000E94EB100F2EF6E3CF2EDD24F02DC80E47
:1025F000D91EA114B10409F064C3332039F085E079
:10260000D30150968C93509769E101C068E1C301F2
:1026100040E050E096010E945B2B94C398012F5F2D
:102620003F4FF701E00FF11F8491853209F036C367
:102630004D815E81475F5F4FB3E0493E5B0708F025
:102640005EC389010D5F1F4FA701420F531FFA019F
:102650009491933409F040C0F9013196EE0DFF1DBD
:10266000E491EC34C9F52E5F3F4FF701E20FF31F01
:10267000849180530E947E28803FA1F4ED81FE81E9
:10268000EC0DFD1D2FE620832D813E812F5F3F4FF6
:10269000F601E20FF31F8EE68083D9011196BE8307
:1026A000AD8307C3ED81FE81EC0DFD1DBFE6B08358
:1026B0002D813E812F5F3F4FF601E20FF31F86E62B
:1026C00080832F5F3F4FF601E20FF31F8083D90114
:1026D0001196BE83AD83EDC2FA019491923509F053
:1026E00040C0F9013196EE0DFF1DE491E335C9F5C7
:1026F0002E5F3F4FF701E20FF31F849180530E943A
:102700007E28803FD1F4ED81FE81EC0DFD1D2FE48C
:1027100020832D813E812F5F3F4FF601E20FF31F93
:1027200086E480832F5F3F4FF601E20FF31F808323
:10273000D9011196BE83AD83BCC2ED81FE81EC0D43
:10274000FD1DBFE4B0832D813E812F5F3F4FF60119
:10275000E20FF31F8EE48083D9011196BE83AD830F
:10276000A8C2FA019491943509F069C0F901319633
:10277000EE0DFF1DE491E93409F061C08091A700DE
:102780008A3080F08091A700ED81FE81EC0DFD1D67
:102790006AE00E942238805D80838D819E8101964F
:1027A0009E838D838091A700ED81FE81EC0DFD1D40
:1027B0006AE00E942238905D90838D819E8101960F
:1027C000F601E80FF91F8082AC014F5F5F4F8091E7
:1027D000A600F601E40FF51F0E942238805D808379
:1027E0004F5F5F4F8091A600F601E40FF51F0E9436
:1027F0002238905D90834F5F5F4FF601E40FF51F25
:1028000080824F5F5F4F8091A500F601E40FF51FB6
:102810000E942238805D80834F5F5F4F8091A500CA
:10282000F601E40FF51F0E942238905D9083DA01D3
:102830001196BE83AD838901075F1F4F3AC2FA012B
:102840009491913409F074C0F9013196EE0DFF1D99
:10285000E491E43409F06CC0809131068436A8F428
:1028600064E60E9422389A3070F1ED81FE81EC0D11
:10287000FD1D892F6AE00E942238805D80838D8152
:102880009E8101969E838D831EC0ED81FE81EC0D9D
:10289000FD1D64E60E942238805D80834D815E814B
:1028A0004F5F5F4FF601E40FF51F809131060E94E4
:1028B0002238892F6AE00E942238805D8083DA0105
:1028C0001196BE83AD83ED81FE81EC0DFD1D8091DF
:1028D000310664E60E942238892F6AE00E9422387D
:1028E000905D90838D819E810196F601E80FF91F1E
:1028F0002082AC014F5F5F4FF601E40FF51F80911E
:102900002F060E942238805D80834F5F5F4FF60163
:10291000E40FF51F80912F060E942238905D90836E
:10292000FA013196FE83ED8389010E5F1F4FC1C10D
:10293000FA019491933409F0CFC0F9013196EE0D6C
:10294000FF1DE491E43409F0C7C02E5F3F4F2E0D08
:102950003F1DF9018491E82FF0E0F097EE0FFF1F83
:10296000EE5CF94F80819181009709F4A2C1F901D1
:102970008491EDE3F6E0E80FF11DF09780818F3F41
:1029800009F497C1F9012491E22FF0E0F097EE0FDE
:10299000FF1FEE5CF94F808191810E94AC12809103
:1029A000B400882361F1ED81FE81EC0DFD1D805D99
:1029B00080832D813E812F5F3F4FF601E20FF31F91
:1029C0008091B300805D80832F5F3F4FF601E20F5F
:1029D000F31F8091B000805D80832F5F3F4FF60131
:1029E000E20FF31F8091B100805D8083C9010196E1
:1029F0009E838D838091B400882309F05FC080910D
:102A0000B300882331F1ED81FE81EC0DFD1D805D69
:102A100080832D813E812F5F3F4FF601E20FF31F30
:102A20008091B000805D80832F5F3F4FF601E20F01
:102A3000F31F8091B100805D8083D9011196BE8320
:102A4000AD838091B4008823C9F58091B3008823B9
:102A5000A9F58091B0008823E9F0ED81FE81EC0DAD
:102A6000FD1D805D80832D813E812F5F3F4FF601EC
:102A7000E20FF31F8091B100805D8083F9013196F0
:102A8000FE83ED838091B4008823C1F48091B3006C
:102A90008823A1F48091B000882381F48091B10053
:102AA000882361F0ED81FE81EC0DFD1D805D80834A
:102AB0002D813E812F5F3F4F3E832D83ED81FE812F
:102AC000EC0DFD1D8091B200805D80838D819E8123
:102AD00001969E838D83EDC0FA019491943509F09F
:102AE00044C0F9013196EE0DFF1DE491E33509F084
:102AF0003CC02E5F3F4FF701E20FF31F84918053DC
:102B00000E9468298130B9F0823009F0D2C0ED818D
:102B1000FE81EC0DFD1D2FE420832D813E812F5F72
:102B20003F4FF601E20FF31F8EE48083D901119627
:102B3000BE83AD83BEC0ED81FE81EC0DFD1DBFE403
:102B4000B0832D813E812F5F3F4FF601E20FF31FCF
:102B500086E480832F5F3F4FF601E20FF31F8083EF
:102B6000D9011196BE83AD83A4C0FA0144914435C6
:102B700009F088C0F9013196EE0DFF1DE491E134B2
:102B800009F080C02E5F3F4FC701820F931F9A83C9
:102B90008983FC018491E8E5F6E0E80FF11DF097E8
:102BA0008081882309F485C0E981FA818491282FE6
:102BB00030E03C832B83F901E85AF94FF09780818C
:102BC0000E94C712EB81FC81E35AF94FF097808194
:102BD000803F61F4ED81FE81EC0DFD1D38E4308312
:102BE0008D819E8101969E838D8316C0E981FA8135
:102BF0008491EDE5F6E0E80FF11DF09780818F30CC
:102C000059F4ED81FE81EC0DFD1D2CE420838D81B6
:102C10009E8101969E838D83ED81FE81EC0DFD1DCD
:102C200090E290832D813E812F5F3F4F8091B000D5
:102C3000882361F48091B1008823C1F0F601E20F8E
:102C4000F31F805D80832F5F3F4F10C0F601E20FBE
:102C5000F31F805D80832F5F3F4FF601E20FF31F6C
:102C60008091B100805D80832F5F3F4FF601E20FBE
:102C7000F31F8091B200805D8083D9011196BE83DD
:102C8000AD8317C0ED81FE81EC0DFD1D8083ED81CC
:102C9000FE813196FE83ED8389010BC0ED81FE81BB
:102CA000EC0DFD1D80838D819E8101969E838D8319
:102CB00089010A151B05C9F4AD81BE81BA83A983B8
:102CC00022C09924689493F800E010E0442455242D
:102CD0005A8249820F2EFEE22F2EF02D0F2EFAE39C
:102CE0008F2EF02D5E824D8299CCED81FE8123E006
:102CF000E83EF20708F492CCFA83E98304C08D81A0
:102D00009E819A83898390E1992A332089F00A155C
:102D10001B0571F409811A8185E0D30150968C93CB
:102D2000692D6160C301A80196010E945B2B0AC056
:102D3000C301692D49815A8196010E945B2B0A15B6
:102D40001B0530F226960FB6F894DEBF0FBECDBF3E
:102D5000CF91DF911F910F91FF90EF90DF90CF9077
:102D6000BF90AF909F908F907F906F905F904F90AB
:102D70003F902F9008951F93CF93DF9341155105F6
:102D800021F1A62FB72F20E030E060E070E0C0E036
:102D9000D0E01D91FC01E20FF31FE4916F5F7F4FC4
:102DA0001E1719F42F5F3F4F01C09E01FC01E20F77
:102DB000F31FE491EE2319F4621B730B08C0641730
:102DC000750738F36FEF7FEF02C06FEF7FEF862F4D
:102DD000972FDF91CF911F9108951F93CF93DF938A
:102DE0004115510539F1E62FF72F60E070E020E042
:102DF00030E0C0E0D0E011912F5F3F4FDC01A60F23
:102E0000B71FAC911A1719F46F5F7F4F01C0BE0155
:102E1000DC01A60FB71FAC91AA2319F4261B370BB0
:102E20000EC0A081AA2349F02417350720F32FEF05
:102E30003FEF05C02FEF3FEF02C02FEF3FEF822F94
:102E4000932FDF91CF911F9108952F923F924F9230
:102E50005F926F927F928F929F92AF92BF92CF922A
:102E6000DF92EF92FF920F931F93CF93DF9380EF48
:102E70008093520580915505863429F48FE0809324
:102E8000520514E001C013E010921B0610921A06BE
:102E900080900506811608F44DC0CC24DD24282C32
:102EA0003324C12FD0E07101EC1AFD0AB701882745
:102EB00077FD8095982F0E9466359B01AC0160E0FC
:102EC00070E080E291E40E945536062FB72EA82EBE
:102ED000992EB60180E090E00E9464352B013C0100
:102EE000CD5ADA4F688170E060537040882777FDD3
:102EF0008095982F0E946635202F3B2D4A2D592D05
:102F00000E94F2359B01AC01C301B2010E94D4348E
:102F10000E9438356B0182E0E816F10419F4089438
:102F2000C11CD11C1F5F811608F0BBCFD0921B06BD
:102F3000C0921A06DF91CF911F910F91FF90EF90F1
:102F4000DF90CF90BF90AF909F908F907F906F90C9
:102F50005F904F903F902F9008952F923F925F92F5
:102F60006F927F928F929F92AF92BF92CF92DF9299
:102F7000EF92FF920F931F93CF93DF9380910506FB
:102F80000F2EFEEF5F2EF02D580E90EF909352050E
:102F9000E3E5F5E0E80FF11D8081863421F45A94D1
:102FA0008FE08093520510921C06552009F44CC006
:102FB00000E011E0252C3324C12FD0E07101EC1A80
:102FC000FD0AB701882777FD8095982F0E94663506
:102FD0009B01AC0160E070E080E291E40E94553614
:102FE000D62EC72EB82EA92E602F70E0882777FD29
:102FF0008095982F0E9466353B014C01CD5ADA4FDF
:10300000688170E060537040882777FD8095982F25
:103010000E9466352D2D3C2D4B2D5A2D0E94F235E8
:103020009B01AC01C401B3010E94D4340E94383525
:10303000062F82E0E816F10409F40F5F1F5F5116B6
:1030400008F0BACF00931C06DF91CF911F910F912A
:10305000FF90EF90DF90CF90BF90AF909F908F90B8
:103060007F906F905F903F902F90089580915605CC
:10307000833519F0893519F0089581E001C082E0A7
:1030800050915705609158053091590540915A0566
:1030900090915B0520915C056051550F752F770F5E
:1030A000770F570F650F4051330F532F550F550FA3
:1030B000350F430F2051990F392F330F330F930FD3
:1030C000290F0E94762308951F93CF93DF93A4E5E1
:1030D000B5E09D01205F3F4FFD011192E217F3071C
:1030E000E1F76115710599F1FC0120E030E0405DE8
:1030F0005F4F1191113431F51081153719F5118198
:10310000143701F512811F36E9F41381C12FD0E085
:10311000C417D507B9F410920506FC01E20FF31F9E
:1031200046814632A1F0295F3F4FFC01E20FF31FB9
:103130004D93809105068F5F80930506419146323D
:10314000B9F705C02F5F3F4F2617370790F28091E0
:1031500054058F3419F40E9425171CC08091050670
:10316000E3E5F5E0E80FF11D8081863411F08E343F
:1031700019F40E94AD170EC0809155058D3419F4D5
:103180000E94361807C0813429F480915705805376
:103190000E944F23DF91CF911F9108959F92AF928C
:1031A000BF92CF92DF92EF92FF920F931F93CF9334
:1031B000DF936C017B018A01EDE5F5E040E0808161
:1031C000882329F0838994898017910729F04F5F1C
:1031D00075964830A1F702C0483049F580915D05E9
:1031E000882359F0E2E7F5E080E090E041E00196C5
:1031F0009C0150815523B9F403C020E030E040E049
:10320000C901880F991F280F391FF901EE0FFF1F01
:10321000EE0FFF1FEE0FFF1FE21BF30BE35AFA4FF7
:10322000148B038B04C04F5F7596483001F7C42F91
:10323000D0E0CE01880F991F8C0F9D1FFC01EE0F6F
:10324000FF1FEE0FFF1FEE0FFF1FE81BF90BE35AE6
:10325000FA4F8081882399F5CE01880F991F8C0F32
:103260009D1F5C01AA0CBB1CAA0CBB1CAA0CBB1C9E
:10327000A81AB90AA5014B595A4FC601B7010E94B5
:10328000DF11F501E35AFA4F8085843029F4F50106
:10329000E35AFA4F108225C2CE01880F991F8C0F76
:1032A0009D1FFC01EE0FFF1FEE0FFF1FEE0FFF1F14
:1032B000E81BF90BE35AFA4F83E0808303C08330A5
:1032C00009F00FC2CE01880F991F8C0F9D1FFC01C2
:1032D000EE0FFF1FEE0FFF1FEE0FFF1FE81BF90B96
:1032E000E35AFA4F8781813009F44DC0CE01880F2F
:1032F000991F8C0F9D1F5C01AA0CBB1CAA0CBB1C48
:10330000AA0CBB1CA81AB90AB5016B597A4F86EBF7
:103310009CE00E946D12BC01F501E35AFA4F47850B
:103320005089481B590B86E096E00E94ED162FEF5E
:103330008F3F920731F0F501E35AFA4F81E087831E
:1033400022C08CE19DE061E870E0A80120E00E94CD
:10335000D5128EE99DE064E170E0A80121E00E94B1
:10336000D512CE01880F991FC80FD91FFE01EE0F8D
:10337000FF1FEE0FFF1FEE0FFF1FEC1BFD0BE35AAD
:10338000FA4F1082AEC1CE01880F991F8C0F9D1F7E
:10339000FC01EE0FFF1FEE0FFF1FEE0FFF1FE81BDC
:1033A000F90BE35AFA4F8085813009F055C0CE0100
:1033B000880F991F8C0F9D1FFC01EE0FFF1FEE0F52
:1033C000FF1FEE0FFF1FE81BF90BE35AFA4F0184B2
:1033D000F285E02D80818F3229F58181803211F5CF
:1033E00084EC9CE067E570E0A80120E00E94D51223
:1033F00082E091E063EB7BE0A80121E00E94D5121E
:10340000CE01880F991FC80FD91FFE01EE0FFF1FB5
:10341000EE0FFF1FEE0FFF1FEC1BFD0BE35AFA4FE1
:1034200010825FC183EB9DE06AE870E0A80121E0B3
:103430000E94D512CE01880F991FC80FD91FFE0117
:10344000EE0FFF1FEE0FFF1FEE0FFF1FEC1BFD0B1C
:10345000E35AFA4F108245C1823009F042C18BEF26
:103460009EE0B601A7010E94BB162FEF8F3F920787
:1034700049F0AF9881E090E00E94F81D81E08093D0
:10348000AF0012C083EF9EE0B601A7010E94BB16F9
:103490002FEF8F3F920741F0AF9A81E090E00E94BA
:1034A000F81D81E08093AF008CEE9EE0B601A7018D
:1034B0000E94BB162FEF8F3F920749F0AE9882E033
:1034C00090E00E94F81D81E08093AF0012C084EE6E
:1034D0009EE0B601A7010E94BB162FEF8F3F920717
:1034E00041F0AE9A82E090E00E94F81D81E0809366
:1034F000AF008DED9EE0B601A7010E94BB162FEF35
:103500008F3F920749F0AD9883E090E00E94F81D4C
:1035100081E08093AF0012C085ED9EE0B601A70167
:103520000E94BB162FEF8F3F920741F0AD9A83E0C8
:1035300090E00E94F81D81E08093AF008EEC9EE049
:10354000B601A7010E94BB162FEF8F3F920749F0EB
:10355000AC9884E090E00E94F81D81E08093AF0079
:1035600012C086EC9EE0B601A7010E94BB162FEFA9
:103570008F3F920741F0AC9A84E090E00E94F81DE2
:1035800081E08093AF008BEB9EE0B601A7010E9423
:10359000BB162FEF8F3F920709F473C081E0809331
:1035A000AF008FEA9EE0B601A7010E94BB162FEF85
:1035B0008F3F920719F081E00E94D02583EA9EE0B8
:1035C000B601A7010E94BB162FEF8F3F920711F0A3
:1035D0000E94212687E99EE0B601A7010E94BB1642
:1035E0002FEF8F3F920719F082E00E94D0258BE8E1
:1035F0009EE0B601A7010E94BB162FEF8F3F9207F6
:1036000019F083E00E94D0258FE79EE0B601A70164
:103610000E94BB162FEF8F3F920719F084E00E94A3
:10362000D025AA24BB249A2C939410921C061092A5
:10363000050610921B0610921A0610925205089465
:10364000A11CB11CC601B701A5010E9464184091DC
:103650001A0650911B064115510531F0892D6091D4
:1036600052050E94932409C080911C06882329F0EA
:1036700060915205492D0E94852584E0A816B10469
:1036800091F68091AF00882321F11092AF0084EC75
:103690009CE067E570E0A80120E00E94D51282E07E
:1036A00091E063EB7BE0A80121E00E94D512CE01FE
:1036B000880F991FC80FD91FFE01EE0FFF1FEE0FD5
:1036C000FF1FEE0FFF1FEC1BFD0BE35AFA4F10829A
:1036D00008C08BE690E060E070E0A80120E00E9466
:1036E000D512DF91CF911F910F91FF90EF90DF9056
:1036F000CF90BF90AF909F9008950F931F93CF935B
:10370000DF93EC018C010C5E1F4F1C8AF8011382C1
:1037100012826A817B817627672776276451704001
:10372000C8010E94C41BF801938382838889998908
:10373000AA89BB892C853D854E855F85288B398B71
:103740004A8B5B8B8C879D87AE87BF878E010E501F
:103750001040C80140E050E0BA010E94E8098A81A7
:103760009B819827892798270E96B8010E94781088
:10377000DF91CF911F910F910895FC01248928308A
:1037800011F40E947D1B08950F931F93CF93DF9335
:103790008C0162307105E0F0FB01EC0180E090E00B
:1037A000DC012991399140E050E0820F931FA41F62
:1037B000B51F3297E230F105A0F7625070409B01CF
:1037C0002E7F2E5F3F4F020F131F6170707003C07A
:1037D00080E090E0DC016115710531F0F801208195
:1037E000820F911DA11DB11D9D01109739F0820F0F
:1037F000931FA0E0B0E09D011097C9F79C012095B0
:103800003095822F932FDF91CF911F910F910895C3
:10381000AF92BF92CF92DF92EF92FF920F931F93DE
:10382000DF93CF9300D000D000D0CDB7DEB75B01DF
:103830006C0160931D0670931E0680931F06909383
:1038400020062093210630932206409323065093AE
:103850002406E0922506F092260600932706109390
:1038600028068E010F5F1F4FC8010E947E10C801FD
:10387000B601A5010E94AE0726960FB6F894DEBFEA
:103880000FBECDBFCF91DF911F910F91FF90EF90B1
:10389000DF90CF90BF90AF9008958DE196E00895AE
:1038A0006F927F928F929F92AF92BF92CF92DF9250
:1038B000EF92FF920F931F93CF93DF935B016C0105
:1038C000E42FE80164970F2EFEED8F2EFFEF9F2E61
:1038D000F02D800E911E0F2EF4E16F2E7724F02D27
:1038E000620E731E292F332744275527B62FAA2788
:1038F00099278827822B932BA42BB52BB601A501E2
:10390000407050707070452F562F672F77279A019F
:10391000AB01282B392B4A2B5B2BD601C5018070BC
:10392000A070B070BA2FA92F982F8827822B932BC5
:10393000A42BB52B888B998BAA8BBB8B80911D06F2
:1039400090911E06A0911F06B0912006EB2EFF2439
:1039500000271127582F442733272227E22AF32A4A
:10396000042B152B9C01AD01207030705070232F5B
:10397000342F452F55272E293F29402B512B80705E
:10398000A070B070EE24F82E092F1A2F2E293F298F
:10399000402B512B2C873D874E875F87E987962DDB
:1039A000872D9B838A8385E4888319821D821C82EC
:1039B0001F821E8280E888871B861A86CE0164E1FA
:1039C00070E00E94C41B9B878A8780911D0690919E
:1039D0001E06A0911F06B0912006A826B926CA2669
:1039E000DB268091210690912206A0912306B091BA
:1039F0002406A822B922CA22DB22A114B104C104E0
:103A0000D10439F4C40140E050E0BA010E94E80951
:103A10000BC04091250650912606609127067091B3
:103A20002806C4010E94E809C3010E96B4010E9451
:103A30007810DF91CF911F910F91FF90EF90DF9061
:103A4000CF90BF90AF909F908F907F906F90089590
:103A5000CF92DF92EF92FF920F931F93CF93DF935A
:103A60006C01EB0188899989AA89BB89EB2EFF2417
:103A700000271127582F442733272227E22AF32A29
:103A8000042B152B9C01AD01207030705070232F3A
:103A9000342F452F55272E293F29402B512B80703D
:103AA000A070B070EE24F82E092F1A2FE22AF32A04
:103AB000042B152B0E944D1CFC0120813181428179
:103AC0005381E216F30604071507D9F08481958126
:103AD000A681B781822B932BA42BB52BE816F90670
:103AE0000A071B0771F08FEFE8168FEFF8068FEFCC
:103AF00008078FEF180729F02115310541055105F9
:103B0000F1F48985813021F4CE010E94BD1B17C0DC
:103B1000813129F4C601BE010E94CD3410C0863027
:103B200071F4888190E08F709070880F991F880FD2
:103B3000991FB601681B790BCE010E94032DDF91FE
:103B4000CF911F910F91FF90EF90DF90CF9008954C
:103B5000AF92BF92CF92DF92EF92FF920F931F939B
:103B6000CF93DF93CEE3D6E00F2EF4E3EF2EF6E013
:103B7000FF2EF02D00E010E00F5F1F4F802F912FE0
:103B80006E014881403F11F04F30F9F45701F701C1
:103B9000208131812130310579F4403F19F40E94B0
:103BA000161E04C04F3011F40E94021EF50111824E
:103BB0001082F601108209C0403F11F04F3029F405
:103BC00021503040F50131832083219682E090E03E
:103BD000E80EF91E0430110579F6DF91CF911F919F
:103BE0000F91FF90EF90DF90CF90BF90AF9008952E
:103BF00090E0FC01EE5BF94F1082895B994FFC016C
:103C000010820895823061F0833018F4813069F4B5
:103C100005C0833039F0843041F406C0AF9A08956E
:103C2000AE9A0895AD9A0895AC9A0895823061F0E5
:103C3000833018F4813069F405C0833039F0843062
:103C400041F406C0AF980895AE980895AD980895D0
:103C5000AC9808958BB3806F8BBB8AB38F708ABB8F
:103C6000DB9ADB9A89B3DB98DB9ADB9A99B3DB9812
:103C700092959F70807F892B08959BB39F70282F0A
:103C8000207F292B2BBBDB9ADB988295807F982B9A
:103C90009BBBDB9ADB9808958BBBDB9ADB9808957E
:103CA0000F931F93DF93CF930F92CDB7DEB78E01A3
:103CB0000F5F1F4FD998DA9A0E942A1E8983F80154
:103CC00080818823BCF3DA988FEF8ABB0F90CF9165
:103CD000DF911F910F9108958FEF8ABB8ABBD9980E
:103CE000DA98DB98DB9ADD9ADB980E94501E88E216
:103CF0000E943D1E0E94501ED9988EE00E943D1EDB
:103D00000E94501ED99886E00E943D1E0E94501EBF
:103D10000895D99882E00E943D1E0E94501E089589
:103D2000D9988295880F880F807C860F815C0E94CD
:103D30003D1E0E94501E0895D99881E00E943D1EAC
:103D40000E94501E0895D99A0E943D1E0E94501E46
:103D500008950F931F93182F843668F464E60E9429
:103D600022389A30B0F0892F6AE00E942238805DB4
:103D70000E94A31E0EC064E60E942238092F805DB7
:103D80000E94A31E802F6AE00E942238805D0E945C
:103D9000A31E812F64E60E942238892F6AE00E94C8
:103DA0002238892F805D0E94A31E1F910F910895D4
:103DB0001F93CF93DF93EC018881882351F010E0AB
:103DC0000E94A31E1F5FFE01E10FF11D8081882369
:103DD000B9F7DF91CF911F91089584E081B980E216
:103DE00080B984E886BF089594EA96BF06B607FEB8
:103DF000FDCF91B1987F983011F081B1089590ED89
:103E000093B994E896BF06B607FEFDCF91B1987FAF
:103E1000983111F081B1089583B984E886BF06B660
:103E200007FEFDCF81B1887F883211F081B10895FE
:103E300084E986BF80E0089594EA96BF06B607FE3F
:103E4000FDCF91B1987F983011F081B1089590ED38
:103E500093B994E896BF06B607FEFDCF91B1987F5F
:103E6000983111F081B1089583B984E886BF06B610
:103E700007FEFDCF81B1887F883219F4442319F4FD
:103E800016C081B10895262FE62FF72F94E881916F
:103E900083B996BF06B607FEFDCF81B1887F883211
:103EA00011F081B108958E2F821B841780F384E96D
:103EB00086BF80E0089524EA26BF06B607FEFDCF40
:103EC00021B1287F2830C9F721ED23B924E826BF86
:103ED00006B607FEFDCF21B1287F2034C9F7462F53
:103EE00050E04150504014161506ACF470E0A4ECBC
:103EF000A6BF06B607FEFDCF21B1287F2035C9F742
:103F000023B1FC01E70FF11D20837F5F272F30E0F5
:103F1000241735076CF324E826BF06B607FEFDCF4D
:103F200021B1287F2835C9F723B1860F911DFC01E7
:103F30003197208384E986BF80E00895C098B89ABD
:103F400080EC93E00197F1F7B89880EA8A95F1F751
:103F500086B3E8E4F3E03197F1F781700895C098F3
:103F6000B89A93E09A95F1F78111B89880EA8A950A
:103F7000F1F7B8980895C098B89A83E08A95F1F758
:103F8000B89885E28A95F1F796B388E78A95F1F7B4
:103F900081E090FF80E008950F931F9318E000E008
:103FA0000E94BB1F8795882787950695082B11507F
:103FB000B9F7802F1F910F9108950F931F93082F2A
:103FC00018E0802F81700E94AF1F06951150C9F72D
:103FD0001F910F9108950F931F930E949E1F8CECC9
:103FE0000E94DD1F84E40E94DD1F0E94BB1F882306
:103FF000E1F30E949E1F8CEC0E94DD1F8EEB0E945D
:10400000DD1F0E94CC1F182F0E94CC1F082F0E947A
:104010009E1F612F70E06F707070882777FD80950C
:10402000982F0E94663520E030E040E85DE30E9472
:10403000F23520E030E048EC52E40E94F2350E9474
:10404000383560932F060295007F12951F70102B54
:10405000109331061F910F910895FF920F931F93B4
:10406000F82E062F142F0E949E1F8EE40E94DD1F43
:104070008F2D0E94DD1F802F0E94DD1F812F0E9447
:10408000DD1F1F910F91FF900895809131068035BB
:1040900050F080913C068F5F80933C061092300672
:1040A000823091F40AC0809130068F5F8093300691
:1040B00010923C06853028F40895AB9810923C0687
:1040C0000895AB9A1092300608951F9381E06AE03C
:1040D0000E94901E0E94EB1F8091310690E00E948A
:1040E000A91E8CE690E00E94D81E80912F061AE04F
:1040F000612F0E942238805D0E94A31E80912F06AE
:10410000612F0E942238892F805D0E94A31E8FEDAF
:104110000E94A31E8EE690E00E94D81E80E790E0E9
:104120000E94D81E0E94A3280E9445201F91089536
:10413000982F92959F70990F292F220F220F920F7F
:104140008F70890F08956AE00E9422388295807FDF
:10415000890F0895CF93DF9380914C068F770E944B
:1041600098208093A50080914D060E94982080930E
:10417000A6008091B500882341F080914E068F7192
:104180000E9498208093A70007C080914E068F73ED
:104190000E9498208093A70080914F060E9498204B
:1041A0008093A800809150060E9498208093A900D7
:1041B000809151060E9498208093AA008091520617
:1041C0000E9498208093AB000E949C1E2091A70023
:1041D00000D000D000D0EDB7FEB7319683E596E071
:1041E000ADB7BEB712969C938E93119782E790E07D
:1041F00093838283248315820E9442382DB73EB771
:104200002A5F3F4F0FB6F8943EBF0FBE2DBF81E02F
:1042100061E00E94901E8091A7008A3018F480E22D
:104220000E94A31EC3E5D6E0CE010E94D81E81E005
:1042300063E00E94901E8AE30E94A31E2091A600C4
:1042400000D000D000D0EDB7FEB73196ADB7BEB705
:104250001296DC93CE93119782E790E0938382834A
:10426000248315820E9442382DB73EB72A5F3F4F04
:104270000FB6F8943EBF0FBE2DBF81E064E00E94F0
:10428000901E8091A6008A3018F480E30E94A31E3D
:10429000C3E5D6E0CE010E94D81E81E066E00E9410
:1042A000901E8AE30E94A31E2091A50000D000D09A
:1042B00000D0EDB7FEB73196ADB7BEB71296DC931E
:1042C000CE93119782E790E09383828324831582B3
:1042D0000E9442382DB73EB72A5F3F4F0FB6F89481
:1042E0003EBF0FBE2DBF81E067E00E94901E80910F
:1042F000A5008A3018F480E30E94A31E83E596E0AF
:104300000E94D81E8091B500882379F081E061E099
:104310000E94901E80914E0685FF04C080E50E9499
:10432000A31E03C081E40E94A31E82E061E00E94FC
:10433000901E8091A8008430F9F0853038F48230E6
:1043400089F08330A0F4813051F507C08630F1F058
:104350008630B8F0873019F51EC085E790E00E94DE
:10436000D81E1DC089E790E00E94D81E18C08DE7B6
:1043700090E00E94D81E13C081E890E00E94D81EF1
:104380000EC085E890E00E94D81E09C089E890E040
:104390000E94D81E04C08DE890E00E94D81E209193
:1043A000A90000D000D000D0EDB7FEB7319683E56C
:1043B00096E0ADB7BEB712969C938E93119782E7A5
:1043C00090E093838283248315820E9442382DB724
:1043D0003EB72A5F3F4F0FB6F8943EBF0FBE2DBFCA
:1043E00082E065E00E94901E8091A9008A3018F456
:1043F00080E20E94A31EC3E5D6E0CE010E94D81E33
:1044000082E067E00E94901E8FE20E94A31E20912E
:10441000AA0000D000D000D0EDB7FEB73196ADB7FE
:10442000BEB71296DC93CE93119782E790E0938308
:104430008283248315820E9442388091AA002DB77E
:104440003EB72A5F3F4F0FB6F8943EBF0FBE2DBF59
:104450008A3018F480E30E94A31EC3E5D6E0CE01A3
:104460000E94D81E82E06AE00E94901E8FE20E94A5
:10447000A31E82E30E94A31E80E30E94A31E20913C
:10448000AB0000D000D000D0EDB7FEB73196ADB78D
:10449000BEB71296DC93CE93119782E790E0938398
:1044A0008283248315820E9442382DB73EB72A5F4B
:1044B0003F4F0FB6F8943EBF0FBE2DBF82E06DE0B8
:1044C0000E94901E8091AB008A3018F480E30E9415
:1044D000A31E83E596E00E94D81EDF91CF91089538
:1044E000E199FECF80E090E00E944C3AE9EFF0E0E5
:1044F0003197F1F700C00000803F09F45DC0E199F9
:10450000FECF80E090E060EF0E945A3A89EF90E0A1
:104510000197F1F700C000008091A5000E94A32040
:1045200080934C068091A6000E94A32080934D06A4
:104530008091B5008823A1F08091A7000E94A3205C
:104540009091B5002091AC002295220F207E92958B
:10455000990F990F907C922B892B80934E0606C061
:104560008091A7000E94A32080934E068091A8000E
:104570000E94A32080934F068091A9000E94A3204F
:10458000809350068091AA000E94A3208093510638
:104590008091AB000E94A320809352060E94ED1EE2
:1045A00080E06CE476E047E00E941C1FE9EFF0E059
:1045B0003197F1F700C00000089580E00E94F41EDA
:1045C00089EF90E00197F1F700C000008CE496E0DD
:1045D00061E00E945B1F80914C060E9498209091A0
:1045E000A500891709F45AC080914C068F770E9464
:1045F00098208093A5002091A50000D000D000D085
:10460000EDB7FEB7319683E596E0ADB7BEB712962B
:104610009C938E93119782E790E093838283248307
:1046200015820E9442388DB79EB706960FB6F89451
:104630009EBF0FBE8DBF81E067E00E94901E8091FB
:10464000A5008A3018F480E30E94A31E83E596E05B
:104650000E94D81E8091A500882379F40E94F41E40
:10466000A9EFB0E01197F1F700C000008CE496E0EC
:1046700067E00E945B1F0E94AA208091A500813004
:1046800011F40E94A81D8091A50065E00E942238C7
:10469000992311F40E94C2290E9465200895CF93A6
:1046A000DF930E94A32080934F060E94ED1ECCE46E
:1046B000D6E080E0BE0147E00E941C1F89EF90E039
:1046C0000197F1F700C0000080E00E94F41E89EF1E
:1046D00090E00197F1F700C00000CE0167E00E9472
:1046E0005B1F0E94AA20DF91CF9108956F927F9265
:1046F0008F929F92AF92BF92CF92DF92EF92FF92F2
:104700000F931F93DF93CF93CDB7DEB766970FB6A6
:10471000F894DEBF0FBECDBFC62EE42E022F81302F
:1047200081F4822F0E94A32080934C068E2D0E943C
:10473000A32080934D068C2D0E94A32080934E06CB
:1047400011C0823079F4862F0E94A32080935006F6
:104750008E2D0E94A32080935106802F0E94A320BB
:10476000809352060E94ED1E0CE416E080E0B80132
:1047700047E00E941C1F89EF90E00197F1F700C00D
:10478000000080E00E94F41EA9EFB0E01197F1F75D
:1047900000C00000C80167E00E945B1F0E94AA20C1
:1047A00080913E068F3011F0803FE1F4EEE3F6E0B9
:1047B00024E336E00F2EF3E0AF2EBB24F02DAC0E39
:1047C000BD1E0F2EFCE0CF2EDD24F02DCC0EDD1E05
:1047D000AF014C5F5F4FC60135010FEF1FEF88241B
:1047E0008A940EC080913F068F3001F3803FF1F232
:1047F000809140068F30D1F2803F09F07FC0D6CF44
:10480000E190BE2DB03F11F0BF3049F4D9016D9158
:104810007C91D3016D937C93DC01EC9205C0D301B4
:104820000D931C93DC018C922E5F3F4F62E070E091
:10483000660E771E0196E417F50711F780914E0674
:104840008F730E9498208A8B0F2EF1E1EF2EFF24A8
:10485000F02DEC0EFD1E00E010E00F2EFCE48F2E7C
:10486000F6E09F2EF02D013049F0F8013196E80D69
:10487000F91D80810E949820D7018C93E199FECF89
:104880000F5F1F4FF70161917F01C8010E945A3AE3
:1048900089EF90E00197F1F700C0000006301105A4
:1048A00011F70F2EF7E0EF2EFF24F02D0FE010E0B0
:1048B000E199FECFD5016D917D915D01C7010E9407
:1048C000673AE9EFF0E03197F1F700C00000E199B5
:1048D000FECFD6016D916D01C8010E945A3AE9EFF1
:1048E000F0E03197F1F700C000000F5F1F4F62E06A
:1048F00070E0E60EF71E03311105D1F666960FB68D
:10490000F894DEBF0FBECDBFCF91DF911F910F9105
:10491000FF90EF90DF90CF90BF90AF909F908F90DF
:104920007F906F9008956F927F928F929F92AF9237
:10493000BF92CF92DF92EF92FF920F931F93DF937C
:10494000CF93CDB7DEB766970FB6F894DEBF0FBE34
:10495000CDBFF82ED62E3A0180914E068F730E945D
:1049600098208B83CC246894C1F8EE24E3940F2E16
:10497000FCE4AF2EF6E0BF2EF02D4E010894811C12
:10498000911C02C0E394C3944E2D4230D9F30E2DF6
:1049900010E0F501E00FF11F80810E949820F401E2
:1049A000E00FF11F80835C2D573060F38F2D90E076
:1049B0009C01220F331FFE01E20FF31F71866086F8
:1049C000E2E3F6E02E0F3F1FD9016D927C92DE01EB
:1049D000A80FB91F5296DC922DE336E0820F931F89
:1049E000DC01DC920F2EFAE0AF2EBB24F02DAC0ED2
:1049F000BD1E2F5F3F4F0F2EF3E1CF2EDD24F02D94
:104A0000CC0EDD1E3296C601450101E06FEF7FEF4F
:104A10001FEF0F1591F0408151814115510541F073
:104A2000D4014D935C93D9014C91DC014C9305C0AA
:104A3000D4016D937C93DC011C930F5F42E050E046
:104A4000840E951E2F5F3F4F01963296053009F771
:104A5000EE24FF246894E1F8EC0EFD1E00E010E067
:104A6000E199FECF0F5F1F4FD7016D917D01C80106
:104A70000E945A3AE9EFF0E03197F1F700C00000E8
:104A80000630110569F70F2EF7E0EF2EFF24F02D09
:104A90000FE010E0E199FECFD5016D917D915D01B0
:104AA000C7010E94673AE9EFF0E03197F1F700C0E3
:104AB0000000E199FECFD6016D916D01C8010E9401
:104AC0005A3AE9EFF0E03197F1F700C000000F5FCC
:104AD0001F4F42E050E0E40EF51E03311105D1F600
:104AE00066960FB6F894DEBF0FBECDBFCF91DF91B3
:104AF0001F910F91FF90EF90DF90CF90BF90AF90FC
:104B00009F908F907F906F9008950F931F93CF93F6
:104B1000DF93082F162FC42FD0E0CE010E94F81D7E
:104B2000FE01E85AF94F0083FE01E35AF94F108362
:104B3000E199FECFCE014296602F0E945A3A89EF4A
:104B400090E00197F1F700C00000E199FECFCE019F
:104B50004696612F0E945A3A89EF90E00197F1F74B
:104B600000C00000DF91CF911F910F9108950F9326
:104B70001F93062F681788F0182FE199FECF812F19
:104B800090E06FEF0E945A3A89EF90E00197F1F7B9
:104B900000C000001F5F011780F71F910F9108955B
:104BA000CF93DF93C82FD0E0FE01E35AF94F108274
:104BB000FE01E85AF94F1082FE01E35CF94F1082C2
:104BC000FE01EE0FFF1FEE5CF94F11821082E1999A
:104BD000FECFCE01880F991F05966FEF70E00E94FF
:104BE000673A89EF90E00197F1F700C00000E19982
:104BF000FECFCE010E966FEF0E945A3A89EF90E0F9
:104C00000197F1F700C00000E199FECFCE01429676
:104C10006FEF0E945A3A89EF90E00197F1F700C0D8
:104C20000000E199FECFCE0146966FEF0E945A3AFE
:104C300089EF90E00197F1F700C00000DF91CF917C
:104C40000895CF93DF9381E06AE10E94B725EEE5F6
:104C5000F6E089E596E0CEE3D6E044E356E09F0136
:104C60002C5F3F4F1192DC011D92CD011992DA01A8
:104C70001D921D92AD01E217F307A1F7DF91CF91CD
:104C80000895823021F4637061F48DE108958430D9
:104C900051F0863051F0893051F08B3051F48EE173
:104CA00008958CE108958EE108958EE108958EE1D6
:104CB00008958FE10895EF92FF920F931F93CF9382
:104CC000DF938B01EC01C958D2412DE631E0429FC0
:104CD000C001439F900D529F900D1124C80FD91F02
:104CE0006230710570F0862F642F0E94412690E09B
:104CF00041E0C80FD91F4F5F242F30E02017310744
:104D0000C0F37E018C2F9F2DDF91CF911F910F91CA
:104D1000FF90EF9008959CE3699FB0011124680F04
:104D2000711D862F972F0895CF92DF92EF92FF92F9
:104D30000F931F93CF93DF930F2EFEE5CF2EF6E058
:104D4000DF2EF02D09E516E0C7E1D0E0E199FECFB6
:104D5000CE0104970E944C3A7801F801808389EFD4
:104D600090E00197F1F700C00000E199FECFCE017D
:104D70000E944C3AF60181936F0189EF90E0019710
:104D8000F1F700C00000F70180818F3F09F4108225
:104D900021960F5F1F4FCB31D105C1F6DF91CF9127
:104DA0001F910F91FF90EF90DF90CF9008952F9279
:104DB0003F924F925F926F927F928F929F92AF92AB
:104DC000BF92CF92DF92EF92FF920F931F93DF93E8
:104DD000CF93CDB7DEB76D970FB6F894DEBF0FBE99
:104DE000CDBF8E010E5F1F4FEE24FF24E199FECF51
:104DF0000894E11CF11CC7010E944C3AD8018D9324
:104E00008D01E9EFF0E03197F1F700C00000F6E026
:104E1000EF16F10459F70F2EFAE18F2E9924F02D99
:104E20008C0E9D1E0F2EF1E16F2E7724F02D6C0E4F
:104E30007D1E630154010F2EF7E0EF2EFF24F02DAD
:104E40000FE010E0E199FECFC7010E94543AD6016D
:104E50008D939D936D01E9EFF0E03197F1F700C07C
:104E60000000E199FECFC8010E944C3AD5018D9314
:104E70005D01E9EFF0E03197F1F700C000000F5F4E
:104E80001F4F62E070E0E60EF71E03311105D1F608
:104E90008A8D8F3079F0803F69F0FE017B96CE01DC
:104EA0004E9621912F3031F0203F21F0E817F9077D
:104EB000C1F702C180914E068F730E9498208A87A5
:104EC000CC246894C1F8EE24E3940F2EFCE4AF2EBA
:104ED000F6E0BF2EF02D44245524689443F84C0E80
:104EE0005D1E02C0E394C3947E2D7230D9F30E2D63
:104EF00010E0F501E00FF11F80810E949820F2017F
:104F0000E00FF11F80838C2D873060F36D854E8517
:104F10008C8590E070E050E00E945B267C016E8101
:104F20004F818D8190E070E050E00E945B266C0123
:104F300089856A850E948B268C018A816B810E94FB
:104F40008B26081B190BEC18FD0820EA35E0E29EC1
:104F5000C001E39E900DF29E900D11245801A80E01
:104F6000B91EA114B10451F424E336E08EE396E0B7
:104F7000AE01425E5F4F7301F4013DC064018301E5
:104F8000EE24FF2422242A94322C0894E11CF11CE4
:104F90008E2D9F2D2801D8012D913C911197A2169D
:104FA000B30668F4F60180818F3011F0803F91F4F0
:104FB0002A193B09D20111963C932E9312C0F60197
:104FC0002081203F19F40E94161E04C02F3011F4D6
:104FD0000E94021ED20111963C922E926FEFF601B2
:104FE00060830E5F1F4F0894C11CD11C74E0E7164C
:104FF000F10459F6B9CF0191003F11F00F3041F49F
:10500000D7016D917C91D9016D937C93DC010C9358
:1050100062E070E0E60EF71E2E5F3F4F0196E41748
:10502000F50749F70F2EF9E0EF2EFF24F02DEC0ED7
:10503000FD1E00E010E0E199FECF0F5F1F4FD7018A
:105040006D917D01C8010E945A3AE9EFF0E0319775
:10505000F1F700C000000630110569F70F2EF7E0E8
:10506000EF2EFF24F02D0FE010E0E199FECFD301E9
:105070006D917D913D01C7010E94673AE9EFF0E033
:105080003197F1F700C00000E199FECFD4016D9196
:105090004D01C8010E945A3AE9EFF0E03197F1F76B
:1050A00000C000000F5F1F4F62E070E0E60EF71EC9
:1050B00003311105D1F604C081E062E10E94B725F9
:1050C0006D960FB6F894DEBF0FBECDBFCF91DF91C6
:1050D0001F910F91FF90EF90DF90CF90BF90AF9016
:1050E0009F908F907F906F905F904F903F902F9008
:1050F00008950E9494260E94D7260895823071F068
:10510000833018F48130B1F405C0833059F0843015
:1051100089F40CC0AF9B0FC08FE00895AE990DC00D
:1051200080EF0895AD990BC080EF0895AC9909C048
:1051300080EF0895089580EF08958FE008958FE03F
:1051400008958FE008954F925F926F927F928F92B1
:105150009F92AF92BF92CF92DF92EF92FF920F9306
:105160001F93CF93DF930F2EF9E58F2EF6E09F2E3E
:10517000F02D04E316E00F2EF3E4EF2EF6E0FF2E01
:10518000F02D0F2EF8E4CF2EF6E0DF2EF02D0F2EAF
:10519000FEE5AF2EF6E0BF2EF02DC0E0D0E09E0180
:1051A0002F5F822F2196FE017C2E6F2EF4019191AC
:1051B0004F01992309F45FC0F80120813181211545
:1051C000310509F058C040913106941730F094171A
:1051D00031F520912F06222321F12701F70190813B
:1051E0009F5F9083F60110820E947E28F5019081D6
:1051F000891709F440C0F70180818A30E0F19F30BF
:1052000029F4872D962D0E94021E06C0903F21F49E
:10521000872D962D0E94161EF20110822CC0491770
:1052200050F020912F0650E0420F511D292F30E001
:105230004217530701F5F70110822601F60190810C
:105240009F5F90830E947E28F5019081891799F4D1
:10525000F60190819A3078F08F3029F4872D962DC1
:105260000E94161E06C0803F21F4872D962D0E94B5
:10527000021EF20110820E5F1F4F0894E11CF11C08
:105280000894C11CD11C0894A11CB11CC430D105C8
:1052900009F085CFDF91CF911F910F91FF90EF9093
:1052A000DF90CF90BF90AF909F908F907F906F9046
:1052B0005F904F9008951F9382E061E00E94901EDE
:1052C00010E180E20E94A31E1150D9F71F910895AA
:1052D0002DE336E0280F311DF9019081903F29F030
:1052E00081E09F3019F080E0089582E008950F93E7
:1052F0001F93DF93CF9300D000D0CDB7DEB7698383
:105300007A838B839C83423049F0433061F0413093
:1053100071F481E990E00E94D81E09C085E990E00F
:105320000E94D81E04C089E990E00E94D81E8E0118
:105330000F5F1F4FF8018381882329F48DE990E0E6
:105340000E94D81E16C00E94A91E8EE20E94A31EB3
:10535000F80182810E94A91E8EE20E94A31EF8011C
:1053600081810E94A91E8EE20E94A31E89810E9453
:10537000A91E0F900F900F900F90CF91DF911F916A
:105380000F9108950E945B2982E061E00E94901EC7
:1053900060911D0670911E0680911F069091200657
:1053A00041E00E94772908956F927F928F929F9299
:1053B000AF92BF92CF92DF92EF92FF920F931F9323
:1053C0005B016C0139014A010E9472100E94A00722
:1053D000C601B501A40193010E94081C1F910F9101
:1053E000FF90EF90DF90CF90BF90AF909F908F9005
:1053F0007F906F9008950E946C1E0E949C1E8FEFFC
:1054000084BB85BB17BA88BB11BA82BB0E948633A6
:105410000E94702280E00E94F41E89EF90E00197C4
:10542000F1F700C000008CE496E067E00E945B1F8B
:105430000E94AA200895EF92FF920F931F93CF939B
:10544000DF9380E3809329068FE480932A0686E425
:1054500080932B0689E480932C0683E480932D06A9
:1054600085E480932E06CDE1D6E0188219821A8257
:105470001B821C821D821E821F82188619861A8634
:105480001B8660E070E0CB0120E030E0A901EE2453
:10549000FF2487010E94D42988819981AA81BB8138
:1054A0000097A105B10511F40E94740A80E590E00F
:1054B0006EEC78E10E94C02A0E94C811DF91CF9162
:1054C0001F910F91FF90EF900895CF93DF930E946B
:1054D000FB290E9479280E941B2ACDE1D6E0888111
:1054E0009981AA81BB810097A105B10511F40E94A1
:1054F000740A0E9404110E94AC0EF1CF62ED74E0B8
:1055000080E090E0089590E02FE130E0829FF0018C
:10551000839FF00D929FF00D1124EE59F94F108AE0
:1055200008951F9310E0812F0E94832A1F5F183077
:10553000D1F71F9108951F93909172069923E1F07E
:10554000A1E9B6E0FD0111E080818823B1F01F5F81
:105550007F961830C9F7983029F011E08C91883087
:1055600031F401C010E0812F0E94832A06C01F5F22
:105570005F96183099F701C010E0812F1F910895B0
:105580000F931F93CF93DF93EC018B010E949B2A13
:10559000883008F080E090E02FE130E0829FF00159
:1055A000839FF00D929FF00D1124EE59F94FD38394
:1055B000C28382E0808B80E090E2928B818B948B1F
:1055C000838B8CE3828F148F038FDF91CF911F9198
:1055D0000F9108951F93CF93DF93C2E7D6E010E0B9
:1055E0008881882361F0823051F08A85882321F0F8
:1055F00081508A87882319F4812F0E94832A1F5F94
:105600006F96183069F7DF91CF911F910895EF924F
:10561000FF920F931F93CF93DF937C018B01623036
:105620007105F0F0EC01988189812296F92FE0E074
:10563000DF01A80FB11DCD01A0E0B0E0280F391F98
:105640004A1F5B1F625070406230710560F7025064
:105650001040C8018E7F0296E80EF91E017010708E
:105660000115110549F0F701908180E0A0E0B0E05C
:10567000280F391F4A1F5B1FCA01AA27BB270097A3
:10568000A105B10569F040705070280F391F4A1FFD
:105690005B1FCA01AA27BB270097A105B10599F78F
:1056A00020953095822F932FDF91CF911F910F91ED
:1056B000FF90EF9008952F923F924F925F926F92DA
:1056C0007F928F929F92AF92BF92CF92DF92EF9292
:1056D000FF920F931F93DF93CF9300D000D0CDB7ED
:1056E000DEB75C01262E6A01F90170E0662477249A
:1056F000689461F86622772261FF0DC082E08083A2
:1057000084E0818383E0828398EE938391E09483A5
:10571000858386831782CF0144979C838B83D50131
:1057200012968D919C911397982789279827EB8142
:10573000FC81918380838D919C9111979827892773
:1057400098279383828318968D919D910D90BC919B
:10575000A02DEB2EFF2400271127582F4427332795
:105760002227E22AF32A042B152B9C01AD0120707D
:1057700030705070232F342F452F55272E293F2965
:10578000402B512B8070A070B070EE24F82E092FA2
:105790001A2F2E293F29402B512B248335834683F2
:1057A0005783960140E050E0F50180859185A28500
:1057B000B385820F931FA41FB51F80879187A2878F
:1057C000B387637070706115710539F00196A11D82
:1057D000B11D80879187A287B387F5018485958560
:1057E000A685B785EB2EFF2400271127582F4427C5
:1057F00033272227E22AF32A042B152B9C01AD0123
:10580000207030705070232F342F452F55272E29AC
:105810003F29402B512B8070A070B070EE24F82EE1
:10582000092F1A2F2E293F29402B512BAB81BC81E8
:1058300018962D933D934D935C931B9761147104BF
:1058400049F080E71C968C931C97F6017C96FA83AE
:10585000E98309C080E5AB81BC811C968C93F6017D
:105860007496FA83E983AB81BC811D962C921D97B7
:10587000F501818992899827892798271F969C93FB
:105880008E931E9751961C921E92509753961C927F
:105890001E9252978D01045110400E944D1CDC0154
:1058A0002D903D904D905C90522C44243324222422
:1058B0000E944D1CFC0180819181A281B381807086
:1058C0009070B070692E7A2E8B2E99240E944D1CF8
:1058D000FC0180819181A281B3818070A070B07041
:1058E000CC24D82EE92EFA2E0E944D1CDC011396F2
:1058F0008C9190E0A0E0B0E082299329A429B529F9
:1059000086299729A829B9298C299D29AE29BF293B
:10591000F80184879587A687B787F50184819581EB
:10592000A681B781CB2EDD24EE24FF24582F4427F7
:1059300033272227C22AD32AE42AF52A9C01AD0163
:10594000207030705070232F342F452F55272C296D
:105950003D294E295F298070A070B070CC24D82ECC
:10596000E92EFA2E2C293D294E295F29D80150967F
:105970002D933D934D935C93539789819A819827FA
:10598000892798271B969C938E931A9718961C929A
:10599000189786E019968C9369817A81645F7F4FAE
:1059A0008B819C810C9720E030E0A9010E94072B9D
:1059B000982789279827EB81FC81918B808BD501D3
:1059C00014966D917D918D919C91179746E0298158
:1059D0003A818F010E94501C0F900F900F900F90F2
:1059E000CF91DF911F910F91FF90EF90DF90CF90BB
:1059F000BF90AF909F908F907F906F905F904F90EF
:105A00003F902F9008952F923F924F925F926F9206
:105A10007F928F929F92AF92BF92CF92DF92EF923E
:105A2000FF920F931F93CF93DF937C016C01DC01F6
:105A30000C910F70000F000FA02EBB24EC01CA0DBB
:105A4000DB1D5C84FC0122803380E2E6F6E010E09E
:105A50008089882309F44BC08A819B8198278927F4
:105A60009827428153814817590709F040C088811F
:105A7000998198278927982740815181481759078C
:105A8000B1F5D6011C964D915D916D917C911F975A
:105A9000672E772488249924B42FAA27992788274A
:105AA000682A792A8A2A9B2ADB01CA0180709070B1
:105AB000B070892F9A2FAB2FBB27682A792A8A2AA0
:105AC0009B2A407060707070B62FA52F942F882786
:105AD000B401A301482B592B6A2B7B2B6480758062
